:100000000C94BF010C949B1C0C94DC010C94DC013F
:100010000C94DC010C94DC010C94DC010C94DC01EC
:100020000C94DC010C94DC010C94C7210C949922F3
:100030000C941B1B0C94DC010C94DC010C94DC0173
:100040000C94DC010C94DC010C94DC010C94DC01BC
:100050000C94DC010C94C01B0C94DC010C94DC01AE
:100060000C94DC010C94DC010C94DC010C94DC019C
:100070000C94DC010C94DC010C94DC010C94DC018C
:100080000C94DC010C94DC010C94DC010C94DC017C
:100090000C94DC010C94DC010C94DC010C94DC016C
:1000A0000C94DC010C94DC010C94DC015F045F0413
:1000B0008B048B04EC040A05F905F9050F05850589
:1000C00096059605E4155616EC15B615BA15F015F5
:1000D000BD15F315FE15C8154C16CC150216D01516
:1000E00006163016D4150A163A16DA1510161A1610
:1000F000C115F715C415FA15DF151516261646167F
:100100004816B215E8155F1696199C198A199019A8
:10011000A219A819AE19012328232024282320245A
:10012000742397232024EE23FD2335001E001F0097
:100130002000210022002B0014001A0008001500E6
:100140001700215204001600070009000A00E10010
:100150001D001B000600190005002900E000390001
:10016000E200E3002C000000000000000000280076
:100170002A00230024002500260027002E001C0052
:1001800018000C00120013002D000B000D000E00D3
:100190000F00330034000500110010003600370056
:1001A00038002C00E7005000510052004F002A0098
:1001B000280000000000000000003A003B003C0066
:1001C0003D003E003F00010001005200010001001F
:1001D00001000100500051004F0001002F000100FC
:1001E0004A004B004E000100260201000100010000
:1001F00001000100010000000000000000000100FB
:10020000010040004100420043004400450001005D
:1002100024002500260001000100300021002200FA
:1002200023000100010027021E001F002000010022
:100230000100010027000100010001000100010090
:10024000010000000000000000000E0377006900BC
:100250006E0067005F006200000012036D00610025
:10026000730074006500720079003600000004031A
:10027000090409023B00020100A0FA090400000180
:100280000301010009211101000122440007058139
:100290000308000109040100010300000009211105
:1002A000010001227B0007058203200001120100EA
:1002B0000200000008EDFE66660001010200010573
:1002C000010902A10185020901A1000509190129FD
:1002D00008150025019508750181020501093009FD
:1002E000311581257F95027508810609381581250C
:1002F0007F950175088106050C0A38021581257F56
:10030000950175088106C0C005010980A10185031A
:1003100019012AB700150126B70095017510810053
:10032000C0050C0901A101850419012AA0021501CB
:1003300026A002950175108100C005010906A101E2
:10034000050719E029E715002501950875018102C7
:100350009501750881010507190029FF150026FF81
:100360000095067508810005081901290515002565
:1003700001950575019102950175039101C0112444
:100380001FBECFEFDAE0DEBFCDBF11E0A0E0B1E0ED
:10039000EEE5FAE402C005900D92AE3AB107D9F746
:1003A00022E0AEEAB1E001C01D92AA3CB207E1F73B
:1003B0000E94AB130C942D250C9400000E940D108C
:1003C000089581E008958230B0F46C30A0F4463096
:1003D00090F498E4899FF001112486E0689FE00D75
:1003E000F11D1124E40FF11DEE0FFF1FE65DFE4F1E
:1003F00085919491089581E090E008950E94E30131
:10040000089581E0089581E008950E94030208950F
:100410000E94050208950E94E101089508950E9436
:100420000E020895A6E0B0E0E8E1F2E00C94892421
:1004300049835A839E833091B50189819A81311114
:1004400015C03E81332359F0222349F00E94B7079B
:10045000182F682F89819A810E94930703C00E94F8
:10046000A507182F69817A81812F04C00E94B707E0
:1004700069817A810E94B80E2696E3E00C94A52447
:10048000FC01262F40815181628173818481958195
:100490000E9412020895CF93DF93EC0161E00E9465
:1004A0004002BE010E940802DF91CF910895CF93D0
:1004B000DF93EC0160E00E944002BE010E940F0247
:1004C000DF91CF91089581E008950E94630208951D
:1004D000CF93C82F0E946A068C2F0E9465022FEFCF
:1004E00084E39CE0215080409040E1F700C0000090
:1004F000CF91089581E00E9468020E94E61B089552
:1005000080E00E9468020E94F71B08950F931F93DA
:10051000CF93DF938C0161E00E944002EC01B801AF
:100520000E940B02882309F442C0B801CE010E9448
:100530007E198823E1F1B801CE010E948E1588232F
:10054000B1F1B801CE010E946415882381F1F80150
:100550008581882341F1C3308CE7D807D1F040F47E
:10056000C115FCE7DF0791F0C130DC47A1F01BC0EB
:10057000CB35ECE7DE07A9F0CC35FCE7DF0771F0FF
:10058000CA35DC4781F40E94EB0B0DC00E947A0251
:100590000EC00E94F30B0E94800209C00E94E10B72
:1005A00002C00E94EF0BC8010E94010201C080E05E
:1005B000DF91CF911F910F9108950E94F41A0E942C
:1005C000040308950E9408030E94FD1A08950895E7
:1005D00081E008950895CF93DF93D82F0E94E80219
:1005E000C82F882319F08D2F0E94EA028C2FDF91EB
:1005F000CF9108950895CF93C82F0E94E7028C2FC2
:100600000E94EB02CF91089580E00E94FB020895C2
:100610000E94C6190E94FB020895CF930E94C6193A
:10062000C82F8091B001C81779F0C093B0010E9423
:10063000891B6093B1017093B2018093B3019093D1
:10064000B4018C2F0E94FB02CF910895ADE0B0E081
:10065000ECE2F3E00C948A24488759876A877B8709
:100660008C879D8791110E941D0BCE01019627E07A
:10067000FC0111922A95E9F726E0FE013896DC018B
:1006800001900D922A95E1F72D8121110AC029814F
:100690003A814B815C816D817E818F810E94670AE6
:1006A00004C00E944B028111F2CF2D96E2E00C941F
:1006B000A624FC012481213021F4808191810E94B3
:1006C000E9070895662319F00E94FE1602C00E94F1
:1006D0006F170E94E6170895CF93882309F449C045
:1006E000C82F8CEF8C0F813A98F48C2F0E94031541
:1006F00081113FC08C2F0E944C1A882329F08C2F27
:100700000E948F1A0E947F0B8C2F0E94871A0CC0A8
:1007100080E28C0F883058F4C77081E001C0880FE8
:10072000CA95EAF70E94000B0E947F0B22C0EBE5FE
:10073000EC0FE33040F4F0E0EC59FE4F808190E0A4
:100740000E94F31916C0E8E5EC0FEB3150F4F0E02D
:10075000EE0FFF1FE25DFE4F808191810E94181A0B
:1007600008C083E38C0F833120F461E08C2F0E945A
:100770006203CF910895882381F19CEF980F913AFD
:1007800018F40E948F1A0DC090E2980F983060F410
:10079000877091E001C0990F8A95EAF7892F0E942E
:1007A000060B0E947F0B08959BE5980F933028F469
:1007B00080E090E00E94F319089598E5980F9B312E
:1007C00028F480E090E00E94181A089593E3980FAF
:1007D000933118F460E00E94620308951F93CF9351
:1007E000DF93182FEB010E946C03209741F08FE9F3
:1007F0009FE00197F1F700C000002197F6CF812F0D
:100800000E94BB03DF91CF911F910895893319F0A6
:1008100060E070E002C060E570E00E94EE030895C1
:10082000882321F00E94000B0E947F0B08958823EB
:1008300021F00E94060B0E947F0B0895A0E0B0E01B
:10084000E4E2F4E00C9484247C01162FC72FFC0111
:10085000D581068102950F700E94F60A8823F9F06F
:10086000DD23E9F08C2F807F803461F080E2810FFE
:100870008830A8F08C2F807E803221F4123078F0FE
:10088000002369F080919A0282FF09C082E00E94F1
:10089000B50B0E94F60A91E0D82ED92601C0D12CC2
:1008A000CC2EC2948FE0C8228C2D90E08C30910524
:1008B00008F09FC1FC01EA5AFF4F0C9474248C2F5E
:1008C000807FCF70882311F0C295C07FDD2399F01F
:1008D000CC2309F47AC180E2810F883010F0111125
:1008E00004C08C2F0E94000B03C08C2F0E94100BA1
:1008F0000E947F0B6AC1812F0E94BB03CC2309F4A5
:1009000078C180E2810F883038F1112329F18C2FD2
:100910000E94160B24C08C2F807FCF70803211F084
:10092000C295C07F112319F0113099F13CC080911C
:100930009A0282FD17C0DD2349F0CC2329F08C2FC9
:100940000E94000B0E947F0B80E040C180E00E946B
:10095000BB03CC2309F44DC18C2F0E94060B0E94CF
:100960007F0B47C1DD2349F0002309F1013009F075
:1009700040C18C2F0E94270B3CC101113AC18C2F22
:100980000E9417048C2F0E94330B8C2F0E94880B1F
:1009900030C1DD2321F0063008F02BC108C005303E
:1009A00008F027C115C0DD2331F001110EC18C2FD5
:1009B0000E9410041EC1002359F0193309F016C11A
:1009C000FFEF27EE83E0F15020408040E1F70CC1BB
:1009D0008C2F0E9417040DC18C2F869586958370ED
:1009E00019F0813061F005C1DD2321F0812F9C2FAA
:1009F000937002C080E090E00E94F31902C1DD23F1
:100A000021F0812F9C2F937002C080E090E00E9423
:100A1000181AF7C06D2F812F0E946203F2C08C2F2D
:100A20008370B1F5D111E9C0412F429546954770C9
:100A3000440F440F812F8F7090E09C01042E02C060
:100A4000220F331F0A94E2F714FF0AC08FE090E0F0
:100A500002C0880F991F4A95E2F78095909502C0D1
:100A600080E090E0C695C695C370822B932BC23070
:100A700049F058F4C13019F00E94C606BEC00E9469
:100A8000BD06BBC00E94CF06B8C00E94BA06B5C062
:100A9000DD2319F08C2F817001C08695882309F41D
:100AA000ACC0412F429546954770440F440F812FAB
:100AB0008F7090E09C01042E02C0220F331F0A9415
:100AC000E2F714FF0AC08FE090E002C0880F991F80
:100AD0004A95E2F78095909502C080E090E0C69537
:100AE000C695C370822B932BC23049F058F4C130A5
:100AF00019F00E942E0781C00E9425077EC00E9427
:100B000037077BC00E94DB0678C0CF70DD2339F049
:100B10008C2F0E94F306812F0E9410046EC0812F3B
:100B20000E9417048C2F0E94030767C0123F21F117
:100B300028F4103F41F0113FC1F043C0133F19F1B9
:100B4000143F79F03EC0DD2341F0053008F051C07C
:100B50008C2F8F710E9415074CC0063008F049C0D9
:100B6000F7CF80919A0282FD18C0DD2339F08C2FD7
:100B70008F710E94F3063DC0DD23C9F38C2F8F7166
:100B80000E94030736C0DD2329F08C2F8F710E944D
:100B9000E7062FC00E94E2062CC0DD2349F0CF718A
:100BA0008C2F0E94F30663E08C2F0E94970B21C0CC
:100BB00081E00E94B50B0230E0F082E00E94B50BAC
:100BC00018C0DD2331F0002391F2812F0E946C03C5
:100BD00010C0002399F2193349F49FEFE7EEF3E0D8
:100BE0009150E040F040E1F700C00000812F0E94EA
:100BF000BB0388EF8C0D843020F40E94C6190E943C
:100C0000FB02DD2089F00E94F20A80FD0DC0F70191
:100C100015820E94EC0A0E94F306C7010E94310669
:100C20000E94EC0A0E940307CDB7DEB7E8E00C94FF
:100C3000A0240F931F93CF93DF93EC0168817981F8
:100C40008D810E94F4078C010E9440070E94AB0630
:100C5000B801CE010E941E04DF91CF911F910F9128
:100C60000895CF93DF93FC0124812223D1F0EC017E
:100C70000E94860281110FC00E94F60A882389F023
:100C80008D81882371F080919A0282FF0AC082E0F0
:100C90000E94B50B06C0CE010E941906CE010E942B
:100CA0005702DF91CF91089580E090E00E94F31900
:100CB00080E090E00E94181A0E941D0B0E947F0B9A
:100CC0000E9405180E94E61708950E94971A0E9434
:100CD000540608950E940D0B0E9465060895929592
:100CE0009F70963079F010F4925001C09A50923073
:100CF00068F4803F69F018F4883E40F409C0843FEE
:100D000029F406C0883E20F0813F11F080E008956C
:100D100081E00895FC012481222339F080819181B2
:100D20000E94E9070E946F06089580E00895A6E0FA
:100D3000B0E0EDE9F6E00C948A242696E2E00C940B
:100D4000A624A7E0B0E0E7EAF6E00C948A24279610
:100D5000E2E00C94A624089508950E94AC0608953C
:100D60000E94AD0608950E94B0069093DD01809325
:100D7000DC0108950E94B30608952091DC013091B2
:100D8000DD01822B932B0E94B30608952091DC0194
:100D90003091DD01822393230E94B30608952091B0
:100DA000DC013091DD01822793270E94B30608956C
:100DB0000E94AC0608950E94D8069093DB018093B0
:100DC000DA01089580E090E00E94DB06089521E0BA
:100DD00030E0A90102C0440F551F8A95E2F7CA010D
:100DE0000E94DB06089521E030E002C0220F331F8D
:100DF0008A95E2F78091DA019091DB01822B932BA7
:100E00000E94DB06089521E030E002C0220F331F6C
:100E10008A95E2F7209530958091DA019091DB0177
:100E2000822393230E94DB06089521E030E002C074
:100E3000220F331F8A95E2F78091DA019091DB014E
:100E4000822793270E94DB0608952091DA013091D2
:100E5000DB01822B932B0E94DB0608952091DA019F
:100E60003091DB01822393230E94DB0608952091B9
:100E7000DA013091DB01822793270E94DB06089577
:100E80000895962F9770A1E001C0AA0F9A95EAF7EE
:100E900093E0769567959A95E1F7660F771F660F51
:100EA000771FFA01E60FF71F40E050E0682F70E06F
:100EB00090819B01042E02C0369527950A94E2F793
:100EC0002170219529272A23292721934F5F5F4FDE
:100ED0004430510569F70895FB01782F777023E0BE
:100EE000969587952A95E1F7880F991F880F991F86
:100EF000E80FF91F40E050E080E0219130E0072E3C
:100F000002C0369527950A94E2F721703327042E04
:100F100001C0220F0A94EAF7822B4F5F5F4F4430E3
:100F2000510559F70895282F9C3070F4863060F4ED
:100F3000862F622F70E026E0929F600D711D1124B4
:100F400046EB51E00E94410708959C3070F48630D2
:100F500060F4292F90E066EB71E036E0239F800D6E
:100F6000911D11240E946C07089580E00895A0E06F
:100F7000B0E0EDEBF7E00C9483247C010091DA0102
:100F80001091DB018091DC019091DD01082B192B80
:100F9000CFE0D0E0CC24C394D12CC6010C2E02C0EB
:100FA000880F991F0A94E2F780239123892B21F45B
:100FB000219798F7B12C07C0BC2EB7018C2F0E9447
:100FC000C40E0197A9F38B2DCDB7DEB7E9E00C94E1
:100FD0009F24CF93DF93EC010E94B707BE010E94CC
:100FE000C40EDF91CF9108951F93CF93DF93EB0150
:100FF0009091B501992321F0CB010E94E90713C01C
:10100000882349F0CB010E94B707182F682FCE0123
:101010000E94930704C0CB010E94A507182FBE01B0
:10102000812F0E94C40EDF91CF911F9108951F93CD
:10103000CF93DF93C091DE0117E08091DF01C817E5
:10104000A1F0D0E01C9FF0011D9FF00D1124E05293
:10105000FE4F208131814281538164817581868177
:101060000E94A1062196C770E8CFDF91CF911F9112
:101070000895209118023091190240911A0250915E
:101080001B0260911C0270911D0280911E020E9441
:10109000A1060895CF93DF9380911E0282958F70F1
:1010A00009F04EC080911D02882309F449C0809147
:1010B000DE014091DF015091190260911802C09148
:1010C0001A02D0911B0277E08417D1F190E0789F4B
:1010D000F001799FF00D1124DF01A052BE4F14964C
:1010E0002C911497222349F111962C9111972513D5
:1010F00024C02C91261321C015962C9115972111EF
:101100001CC012962D913C9113972C1B3D0B283C33
:10111000310598F480911E028F70806180931E02C9
:10112000EA51FE4F80818F708061808388E192E078
:101130000E9431060E94170803C001968770C4CF31
:10114000DF91CF9108952091DE019091DF0157E06A
:101150002917A9F030E0529FF001539FF00D1124A0
:10116000E052FE4F7181761306C07081781303C080
:101170007581741306C02F5F3F4F2770E9CF80E061
:10118000089581E00895A4E1B0E0E9ECF8E00C9462
:1011900080248C0186E0F801DE011F9601900D92FB
:1011A0008A95E1F7F8018481E58098E1A92E92E023
:1011B000B92E90911C02911118C0882309F480C1A6
:1011C000EE20D9F1C8010E948A06F82E8823A9F1E1
:1011D00087E0F801D50101900D928A95E1F7C501EC
:1011E0000E9459030E944A0898C0F801C080D1802B
:1011F00082809380F0901D0220911A0230911B0290
:10120000A401421B530BFF2009F406C1483C5105C1
:1012100008F0AFC0882309F455C180911E02282F21
:10122000207F90911902222361F09D1509F462C07C
:10123000C8010E948A06811173C0C8010E9431064C
:101240003FC19D1115C0909118029C1111C0E11071
:101250000FC08F70806180931E020E94390888E160
:1012600092E00E94310680911E02F801868326C119
:10127000E1103AC040E06D2D8C2D0E94A30840E0A3
:101280006D2D8C2D0E94A308E82E811117C1CF86E9
:10129000D88A8F8598890E94E907292F22952F7077
:1012A000243020F49F70223028F009C02A502230C8
:1012B00080F014C0992349F0811107C013C099230D
:1012C00021F0F8019681907F69F0805E883030F4DB
:1012D00009C0803F38F0815F833020F0C8010E9450
:1012E0003106EF2CFE2CEEC080911E0281608093AF
:1012F0001E02E4C0909118029C119ACFE11098CF81
:10130000F8018683C8010E94310687E0F801A8E150
:10131000B2E001900D928A95E1F70E943908D2C09F
:10132000EE2009F48ACF20911E02822F82958F70C1
:1013300090E002978CF080911802909119029987A1
:1013400088879B868A8680911C028C871D862E87C3
:10135000CE0108960E94310687E0F801A8E1B2E0CC
:1013600001900D928A95E1F70E944A080E9439087F
:10137000A7C090911E02292F207FA1F4682D9A8A80
:10138000898AA6017A899E2D0E94970688E192E0BB
:101390000E94310687E0F50111928A95E9F70E94D3
:1013A00039088CC0882309F48DC0809119028D11F1
:1013B00011C0809118028C110DC0E1100BC0F80112
:1013C0009683C8010E94310687E0F50111928A9543
:1013D000E9F778C0C8010E948A06882309F42DCF56
:1013E000EE2009F42ACF20911E02822F82958F7061
:1013F00090E002970CF4B0CF8091180290911902FE
:101400009A8389839C828B8280911C028D831E82A9
:101410002F83CE0101969ECF483C510508F040C075
:10142000882309F44DC0FE2CEE2009F406CF8091EC
:1014300019028D1127C0809118028C1123C0909140
:101440001E0290FD16C0892F82958F70282F30E0E4
:101450002115310571F0F80196832F30310509F41B
:1014600051CF8F5F982F9295907F86818F70892BB7
:1014700048CF87E0F801A8E1B2E001900D928A958B
:10148000E1F720C0C8010E948A06811165CF8091D2
:101490001E02816080931E02C8010E94310612C0A4
:1014A000682D9A8A898AA6017A899E2D0E949706BC
:1014B00087E0F50111928A95E9F72FCFF12C02C050
:1014C000FF24F3948F2D6496ECE00C949C24AEE002
:1014D000B0E0EDE6FAE00C948924288739874A8742
:1014E0005B876C877D878E87CE0108960E94C30834
:1014F000882361F06C856623A9F1288539854A85A2
:101500005B857D858E850E94A1062CC087E0FE014B
:101510003896DE01119601900D928A95E1F76C855F
:10152000662301F12091DF0130E0C9010196877047
:1015300099274091DE0150E084179507E1F16D8312
:1015400097E0929FD001939FB00D1124A052BE4FFF
:10155000FE01319601900D929A95E1F78093DF019B
:101560000E94170817E08091DE019091DF01891732
:1015700079F1189FC001112480529E4F0E94C30828
:10158000882331F1E091DE011E9FF0011124E05229
:10159000FE4F208131814281538164817581868132
:1015A0000E94A1068091DE0190E001968770992744
:1015B0008093DE01D8CF0E946A061092DF0110925C
:1015C000DE01E8E1F2E087E0DF011D928A95E9F7AC
:1015D0002E96E3E00C94A5248091270286958695AB
:1015E000869508958091270287700895909127022B
:1015F000977081E009F480E00895809133020895A6
:1016000090913302892B80933302089580959091B5
:101610003302892380933302089510923302089590
:1016200090913202892B8093320208958095909197
:101630003202892380933202089510923202089573
:1016400008950E94200B08950E94210B0895909107
:101650002902292F2823821729F0982B90932902F9
:101660000E94240B089590912902292F282331F0FC
:1016700080958923809329020E94240B08958091EC
:101680002902882329F01092290280E00E94240B6D
:1016900008950F931F93CF93DF9300910001109152
:1016A0000101C091330280913202C82B809129023E
:1016B000882331F0C82B0E943D1A81110E943F0BF4
:1016C000F801C083C0910001D091010148E050E0D1
:1016D0006FE172E0CE010E94C524892B59F088E0A9
:1016E000FE01AFE1B2E001900D928A95E1F7CE01E3
:1016F0000E94DA19DF91CF911F910F9108950E94F6
:10170000490B08950E94200B08950E94820B0895B2
:1017100090912802292F282331F0809589238093E6
:1017200028020E94850B08950E94200B0895909135
:101730009A0292FF11C098E0899F90011124262BF4
:10174000209327020E94F3068091270286958695B2
:1017500086950E94940B08950E94F30608951092B6
:10176000270280E00E94940B0895909127028095B3
:10177000892380932702282F277069F4981759F03E
:1017800090919A0292FF07C08695869586950E9451
:1017900003070E94AF0B089590919A0292FB2227B3
:1017A00020F9281769F080FB92F990939A028091B2
:1017B000990290919A020E94140C82E00E94B50B4B
:1017C000089580919A0282FB882780F991E0892709
:1017D0000E94CC0B089581E00E94CC0B089580E01C
:1017E0000E94CC0B08956FEF7FEF80E090E00E94A5
:1017F0001725089580E090E00E94E32421E0863ED2
:101800009E4F09F020E0822F089582E090E00E9430
:10181000DB24089583E090E00E94DB24089584E0B7
:1018200090E00E94E3240895BC0184E090E00E94CF
:1018300017250895AB01BC018FE090E00E940B25B5
:101840000895AB01BC0183E190E00E940B2508954F
:1018500060E070E0CB010E94210C089560E070E030
:10186000CB010E941A0C0E94280C0895A8E0B0E059
:10187000ECE3FCE00C948A2466EE7EEF80E090E0DE
:101880000E94172560E082E090E00E94F92481E048
:1018900090E09093DD018093DC0161E083E090E0D3
:1018A0000E94F92460E074E184E090E00E94172532
:1018B00060E086E090E00E94F92460E087E090E03C
:1018C0000E94F92440E050E0BA0188E090E00E94D4
:1018D0000B2560E084E290E00E94F92460E087E15B
:1018E00090E00E94F92460E08CE090E00E94F924EE
:1018F00060E08DE090E00E94F92419821A821B8238
:101900001C821D821E821F82188648E050E068E11A
:1019100070E0CE0101960E94E92440E050E0BA0157
:1019200080E290E00E940B250E942E0C2896E2E0B7
:101930000C94A6240E94360C0895682F8EE090E047
:101940000E94F9240895A6E0B0E0E9EAFCE00C94D6
:1019500088240E947D1B8C01809134029091350275
:101960000817190781F019821A820E947D1B682FBF
:1019700049815A81792F80E090E00E9426031093DC
:101980003502009334022696E4E00C94A4240E94CD
:10199000DA0F609346027093470280934802909357
:1019A00049026093420270934302809344029093F1
:1019B0004502089581E008950E94AF1108950895A9
:1019C0000E94DF0C08950E94DF0C08950E94E30C32
:1019D00008950E94DF0C08950E94E90C08950E946A
:1019E000DF0C089584EF9FE00E94B8130E94EF0C73
:1019F0000E94EC0C08950E94E00C0E94DF0C0895F8
:101A00000E94FA0B811102C00E949A0C0E94050CE0
:101A100080934A020E940F0C90939A02809399023D
:101A20000E94DB130E940A0C90E00E94BA0680918B
:101A3000DA019091DB010E94D80608950E94741B80
:101A40000E94B40F0E94B5110E9403110E94000D64
:101A50000E94FA020E944C150E94C7110E94E60CD7
:101A60000895A6E0B0E0E7E3FDE00C9481240E9435
:101A7000DA0C811103C00E94A30C53C00E942811EC
:101A800086E3E82E82E0F82E670100E0F60111916E
:101A90006F01802F0E94F60F81270F5F0C3019F025
:101AA0008823A1F302C0882331F380914A0281FD8B
:101AB0000E94FC0F0E94DC0CA82E10E09924939445
:101AC000812F0E94F60FB82EF701C080C82609F1B9
:101AD00000E0DD24D3948C2D8D21A9F0AA2099F06B
:101AE00009831A830E947D1B9C838B839D8291E0D6
:101AF0008B2D8D2109F490E049815A816B817C8185
:101B00008D810E9426030F5FDD0C063021F7F7015F
:101B1000B0821F5FFFEFEF1AFF0A1C3089F60E94A8
:101B2000C70C0E94AF110E9427180E940D03269631
:101B3000EBE00C949D241F93CF93DF930E94C90E7A
:101B4000EC01C11580E5D807E8F5C11590E4D90787
:101B500008F0A8C0C03ED10530F5CD3CD10508F055
:101B600094C0C83AD10578F4C53AD10508F083C0CD
:101B7000C130D10509F47CC008F4F2C0C430D105ED
:101B800008F0F1C0EDC0C33CD10508F0E9C0C85A67
:101B9000D0E0CC0FDD1FC959DE4F0990D881C02D90
:101BA000CE019464E1C0C11580E2D80708F0CBC033
:101BB000C11591E0D90708F06BC0C83ED10508F403
:101BC000D2C0CEC0C03682E5D80728F5C03492E531
:101BD000D90708F079C0C03282E5D80708F06CC098
:101BE000C11592E5D90708F481C04C2F469546955A
:101BF00080E2489FA0011124C37021E030E0C901B8
:101C000002C0880F991FCA95E2F7EA01C82BD92BA9
:101C1000CE019D68A9C0C03A82E5D807B8F48C2FE0
:101C20008F71C03892E5D90708F07BC086958695FC
:101C300090E2899F90011124C37081E090E002C07E
:101C4000880F991FCA95E2F79A6868C0C03C82E580
:101C5000D80708F46DC0C03E92E5D90708F080C0EF
:101C6000CF71DD27DC2FCC27CE01806F906A7CC03E
:101C700081E090E079C0C55AD0E0C356DE4F88813C
:101C8000C82FD0E0CE0190646FC0CE0190656CC0CB
:101C90008D2F0E94650F182FCE0199270E94C90E23
:101CA0001F715CC0CE0199270E94C90ECC27DF703E
:101CB000D06A8C2B9D2B58C0CF71D0E0DC2FCC2765
:101CC000CE01816F906A50C08C2F8F71869586955A
:101CD00090E2899F90011124C37081E090E002C0DE
:101CE000880F991FCA95E2F79C6818C08C2F8F71D6
:101CF0000E94650F95E0D695C7959A95E1F7CF704C
:101D0000D0E0DC2FCC27282F30E084FF05C084E012
:101D1000220F331F8A95E1F7D069CE01822B932BD6
:101D200023C090E0D82FCC27CE01846F906A1CC0CE
:101D30008C2F8F710E94650F8F7190E0D82FCC2768
:101D4000CE01906211C08D2F8F710E94650F182FE8
:101D5000CE0199270E94C90E1F719062912B04C079
:101D600080E090E001C0CE01DF91CF911F910895F6
:101D70007C3038F4663028F4462F672F0E94FE012D
:101D8000089580E090E008950E94B80E0E949B0D97
:101D900008958238910569F1B0F48133910509F411
:101DA00075C048F48932910509F467C08A329105FB
:101DB00009F471C008958533910509F459C0893338
:101DC0009105B9F00895833E910589F138F4803E7C
:101DD0009105D1F0823E910529F10895863E910545
:101DE000C9F1873E9105D9F1843E910509F06CC097
:101DF00027C02091990220FD57C021FD55C0209198
:101E00009A0223FD5BC008958091990280FD48C02D
:101E100080919A0280FF48C08091990284FD46C05B
:101E200083EE51C08091990282FF3CC0F5CF809132
:101E3000990282FD37C080919A0280FD35C0ECCFB7
:101E400080919A0281FF36C08091990284FD2EC054
:101E500087EE39C08091990283FF2AC0F5CF809127
:101E6000990283FD25C080919A0281FD23C0ECCFA9
:101E70008091990285FD22C01FC08091990285FD45
:101E80001BC080919A0283FF19C00AC080919902F9
:101E900086FD16C017C08091990286FD13C010C040
:101EA00089E311C082EE0FC080EE0DC080E00BC050
:101EB00086EE09C084EE07C085E305C089E203C051
:101EC0008AE201C081E390E008959091990292FF27
:101ED00010C041E0282F2471243009F040E031E0A7
:101EE000282F2871283009F030E0431711F02CE03A
:101EF000822793FF10C041E0282F2471243109F07C
:101F000040E031E0282F2871283109F030E04317F4
:101F100011F02CE0822730919A0230FF10C051E07E
:101F2000282F2171213009F050E041E0282F28713D
:101F3000283009F040E0541711F029E0822731FFE2
:101F400010C041E0282F2171213109F040E031E03B
:101F5000282F2871283109F030E0431711F029E0CB
:101F6000822794FD877E089510929B0210929C0216
:101F700010929D0210929E020895CF92DF92EF92EE
:101F8000FF926B017C010E94AF1181110EC00E9473
:101F9000891BC61AD70AE80AF90AC0929B02D09296
:101FA0009C02E0929D02F0929E02FF90EF90DF90E3
:101FB000CF9008950F931F930E94AF11882319F0BB
:101FC0000E94891B0EC00E94891B00919B021091E8
:101FD0009C0220919D0230919E02600F711F821F12
:101FE000931F1F910F91089580E00895E82FF0E06E
:101FF000E455FD4F80810895089580EA8A95F1F7B0
:10200000089500C008950E94FD0F089508950E944C
:10201000061008950E94071008950E940610089562
:102020000E9406100895A6E0B0E0E9E1F0E10C940A
:1020300087240E94AF116091B8028823E9F186E0FD
:10204000F82E8E010F5F1F4FF8018F2D11928A9588
:10205000E9F7862F90E0B80184559D4F0E94D51175
:10206000882389F080919F0290E046E050E0B8011B
:1020700084559D4F0E94C52421E020934B02892B5B
:1020800061F410E016C080914B028823D1F3F8016F
:102090001192FA94E9F710924B02A0919F02B0E0DE
:1020A000A455BD4F86E0F80101900D928A95E1F7A5
:1020B00011E00E940A100DC070E064557D4F8091C0
:1020C0009F0290E084559D4F0E945E120E94101066
:1020D00010E0812F2696E5E00C94A324F894E82FD5
:1020E000E295EF70F0E031A1282F2F7081E090E0B1
:1020F00001C0880F2A95EAF7982F9095932391A312
:1021000092A1892B82A3789408950F931F93CF9364
:10211000DF93C6EAD1E089918F3F11F00E946E10E3
:1021200081E0CC3AD807B9F7C0EAD1E006EA11E07D
:1021300089918F3F11F00E946E100C171D07C1F797
:10214000DF91CF911F910F910895A0E0B0E0EBEAED
:10215000F0E10C9484248C01C62FD0E0CE018A5586
:102160009E4F7C01FC0190819F3F09F447C0D62E11
:10217000F894E92FE295EF70F0E081A19F7021E0E3
:1021800030E001C0220F9A95EAF7822B81A382A149
:102190002095282322A378940E940110E0EAF1E020
:1021A00046EA51E031E0C12C21912F3F89F0A22F66
:1021B000A295AF70B0E090968C9190E02F7002C025
:1021C000959587952A95E2F780FD02C0832F01C07F
:1021D00080E0C82A330F4E175F0731F7F70180817F
:1021E0008F3F11F00E946E1061E0C11001C060E0ED
:1021F0008D2D0E940310C00FD11FC882CDB7DEB74E
:10220000E8E00C94A02480910201809102018111E8
:1022100002C096E001C090E09093B80286E0891B6E
:1022200080939F020E9485108CE0ECEAF2E0DF01CF
:10223000982F1D929A95E9F7E0EAF2E0DF011D92EE
:102240008A95E9F786E00E9466110E94DE010895F2
:10225000ACE0B0E0EEE2F1E10C9487248E010F5F78
:102260001F4F8CE0F80111928A95E9F7F12C6F2D40
:10227000C8010E94A510F394F6E0FF12F8CF4CE0DD
:1022800050E0B80180EA92E00E94C52421E0009766
:1022900009F420E0892B41F08CE0F801A0EAB2E0DB
:1022A00001900D928A95E1F76091B80270E0645553
:1022B0007D4F46E080EA92E00E946711182F0E944D
:1022C0001310812B2C96E5E00C94A3240895EF9233
:1022D000FF920F931F93CF93DF937C018B01C42F49
:1022E000222351F081E080934E020E947D1B909347
:1022F0004D0280934C0204C080914E02811102C0B5
:1023000080E01AC080914C0290914D020E94951B72
:102310000597B0F3D0E0AE01B701C8010E94C52413
:10232000892B39F0AE01B701C8010E94D22481E0A7
:1023300001C080E010924E02CDB7DEB7E6E00C940B
:10234000A224CF930E945324C82F811102C00E945F
:102350004E248C2FCF910895809152020895809140
:10236000510208950E94AF1108950E94A111809317
:1023700051020E94B211809352020E94AC118093CC
:1023800002010E94AF1181110E940D1208950E9456
:10239000AF11811102C00E941012089581E0909146
:1023A00053029A3008F080E008950F931F93CF9363
:1023B000DF93EC018B01809153028A3038F4B8012D
:1023C000CE010E945B1281111DC00AC080914F0294
:1023D000909150020E94951B843F914080F715C058
:1023E000809153028F3F19F08F5F80935302809149
:1023F00053028A3060F00E947D1B909350028093BC
:102400004F0203C01092530202C080E001C081E07D
:10241000DF91CF911F910F9108950E94561C08954E
:102420000E94591C0895A0E0B0E0E9E1F2E10C94AB
:1024300085247901C82F880FDD0B41155105A9F0BE
:10244000FE0193E0EE0FFF1F9A95E1F7ED5FFE4F5F
:10245000818192818C5A9D4F208130E04217530731
:1024600008F49A01A9010E94D224CE010E94411DC4
:10247000D82E8823D1F001151105B9F083E0CC0FD7
:10248000DD1F8A95E1F7FE01ED5FFE4F438150E0CD
:102490000417150708F4A801CD5FDE4F6C817D811C
:1024A0006C5A7D4FC7010E94D2248D2DCDB7DEB767
:1024B000E7E00C94A1240E94501308950E94671332
:1024C0000895A4E0B0E0E7E6F2E10C94882460917E
:1024D0006D0270916E0280916F02909170020E9465
:1024E000A41B643671058105910528F10E94DA0F5D
:1024F000DC01CB010296A11DB11D89839A83AB83B8
:10250000BC8300E010E020E030E044E050E0BE0199
:102510006F5F7F4F82E00E941312182F882361F0B3
:102520000E94891B60936D0270936E0280936F020C
:102530009093700201C011E0812F2496E4E00C9486
:10254000A424A0E0B0E0E7EAF2E10C9482247C014C
:102550005B016A010E94CE11811103C001E010E00D
:1025600002C00AE010E0C1E0D0E0B501C701F60109
:102570000995811115C021960C171D0794F0CC9F69
:102580009001CD9F300D300D112480E090E045E3A7
:102590004A95F1F70000019682179307C1F7E5CF3E
:1025A00081E0CDB7DEB7EAE00C949E24A7E0B0E06E
:1025B000ECEDF2E10C9482247B01C090AC01D09050
:1025C000AD0101E010E09E01295F3F4F40E050E087
:1025D00060E070E080E00E941312182F882309F455
:1025E0003EC056018FEFA81AB80A60916902709137
:1025F0006A0280916B0290916C020E94A41B643667
:1026000071058105910518F106E010E09E012F5F2C
:102610003F4F40E050E060E070E081E00E94131224
:10262000182F66E070E0C5010E944D1591E02F81E2
:10263000281390E0192339F10E94891B60936902E5
:1026400070936A0280936B0290936C0211C066E0F3
:1026500070E0C5010E944D159F818913D5CF86E09A
:10266000F6013196DE01119601900D928A95E1F7FF
:10267000112349F086E0FE013196A3E6B2E0019015
:102680000D928A95E1F786E0E3E6F2E0D70101904A
:102690000D928A95E1F7812F2796EAE00C949E240B
:1026A0000F931F93CF93DF93EC018B0146ED52E123
:1026B0000E94A112882331F041E652E1B801CE0117
:1026C0000E94A112DF91CF911F910F9108950F9356
:1026D0001F93CF93DF93C091AC01D091AD01CE0198
:1026E000019626E0FB01DC0101900D922A95E1F7AD
:1026F00066E070E00E944D1588836F81788589853A
:102700009A8500915F0210916002209161023091E0
:102710006202601771078207930751F060935F02AE
:102720007093600280936102909362020E94BD0FD9
:10273000DF91CF911F910F9108950E941C1F0E945D
:102740001E0D0E94291F08950E942E1F0E94310D08
:102750000E94481F08950E94141B0E94021F0E949D
:10276000F20C0E949D130E94A4130E94FB0CFBCF4D
:102770009093AF018093AE0108950E94F30B0895EA
:1027800080E00E94F60F817008950E9428112FEFBB
:1027900086E791E0215080409040E1F700C00000C2
:1027A0000E9428110E94C013882321F00E94BD13AB
:1027B0000E94E61B08950E94C5130895893289F18D
:1027C000F0F4843171F1B0F4873009F077C081E022
:1027D0008093220184E1809321018AE0809320018B
:1027E0008EE180931F0188E080931C0188E2809332
:1027F0001B0164C092EE980F9A30F0F05FC08035F4
:1028000009F444C028F48F3409F058C08AE03FC06E
:10281000813529F0823509F051C081E038C08FEF51
:1028200036C080917302882379F11092730210925E
:1028300072021092710242C08D51809373028330F4
:1028400099F038F4813069F08230D9F481E291E076
:102850000DC0853099F078F0863099F48BE191E0E5
:1028600005C082E291E002C080E291E090937202A2
:102870008093710223C08FE191E0F8CF8CE191E069
:10288000F5CF109273021AC080E0089586EFE091B0
:102890007102F0917202309789F02081082E000CAD
:1028A000990B820F911D8F3F910519F014F08FEF56
:1028B00004C097FF02C0108201C0808381E00895A8
:1028C0008B3109F469C058F58B3009F490C078F465
:1028D000863009F446C020F4853009F44CC08CC021
:1028E000873009F44BC0883009F481C085C080313D
:1028F00009F465C068F48E3009F07EC080914A0208
:1029000082FB222720F991E0922790FB82F94DC0AB
:10291000863109F46CC0893109F469C06DC08A320E
:10292000E9F060F4873209F464C028F48E3108F4C9
:1029300063C08D514FC08932F1F05EC0833450F4D2
:102940008A3308F046C0853309F453C0883309F44C
:102950004EC052C0833409F44CC04EC00E949A0C41
:1029600046C080914A02817F8E7F80934A0281E037
:102970008093740208950E947A0239C080914A02BD
:10298000982F9095917090FB80F980934A02911155
:102990002EC0897F877F10C080914A0281FB222749
:1029A00020F991E0922790FB81F980934A029923C4
:1029B000F1F080914A02816080934A0218C08091B0
:1029C0004A0283FB222720F991E0922790FB83F9AA
:1029D000ECCF895321E030E0A90102C0440F551F1C
:1029E0008A95E2F7CA010E94BA060E946A0681E04F
:1029F000089581E090E0F7CF80E0089580E00895A9
:102A00000E94FE140895CF93C82F809174028130E4
:102A100069F038F08230C1F58C2F0E94DE1381E01E
:102A200039C00E94FD0A823289F504C00E94FD0A65
:102A3000823261F48C2F0E940015811104C08C2F0A
:102A40000E9460141FC081E090E01CC08C2F0E9487
:102A5000FE14811116C0C43189F058F4CB3089F0CE
:102A6000C031B1F482E08093740288E30E94DE13E7
:102A700008C0C93219F0C83321F00AC0109274029C
:102A800007C081E0817006C01092740280E002C02D
:102A900080E0F8CFCF9108950895FC01680F791F69
:102AA0008FEF91E3E617F70771F02191822728E075
:102AB00030E087FF03C0880F892701C0880F2150AD
:102AC0003109B9F7EFCF0895CF93DF9386319C4753
:102AD00009F5EB010E94FD0A9D81992371F08A7A24
:102AE00091E009F490E090937502811102C089E2AF
:102AF00001C085E30E94871A09C080917502811187
:102B000002C089E201C085E30E948F1A0E947F0BF8
:102B100080E001C081E0DF91CF910895CF93DF93F2
:102B2000FC01DB0115968C91882309F4DDC09F011F
:102B300030572332310508F0D8C0EF010E940F0C46
:102B400090939A0280939902FE01E150F047E2329D
:102B5000F10520F4EE59FF4F0C94742480919902F2
:102B60008160AAC080919A028860B2C08091990267
:102B70008260A2C08091990220C0809199028860F1
:102B80009BC080919A021EC080919A028260A0C070
:102B900080919902806190C08091990280628CC07E
:102BA00080919902806488C00E946A06809199028F
:102BB000806882C080919902886084607DC0809125
:102BC0009A028260816084C0809199028E7F74C075
:102BD00080919A02877F7CC0809199028D7F6CC022
:102BE0008091990220C080919902877F65C0809171
:102BF0009A021EC080919A028D7F6AC080919902CC
:102C00008F7E5AC0809199028F7D56C08091990223
:102C10008F7B52C00E946A06809199028F774CC0C8
:102C200080919902877F8B7F47C080919A028D7F28
:102C30008E7F4EC08091990282FB222720F991E07D
:102C4000922790FB82F990FB83F936C080919A021B
:102C5000982F909591708E7F892B90FB81F938C0C9
:102C60008091990286FB222720F991E0922790FB20
:102C700086F922C00E946A068091990287FB22276A
:102C800020F991E0922790FB87F916C081E001C0FE
:102C900080E00E949D0C1EC08091990284FB222737
:102CA00020F991E0922790FB84F906C08091990267
:102CB000982F909590FB80F9809399020BC080919A
:102CC0009A0283FB222720F991E0922790FB83F957
:102CD00080939A028091990290919A020E94140C1A
:102CE0000E946A0680E001C081E0DF91CF910895E3
:102CF000282F35EB2303C001112497FF03C0805810
:102D0000910902C080589F4F892F089580917C02BD
:102D100080FF06C06091200170E0660F771F26C01B
:102D200081FF04C06091200184E005C082FF07C0DC
:102D30006091200188E0689FB001112417C0909134
:102D40007B029923D1F060911F01961788F720919B
:102D5000200188E0289F90011124929FA001939F59
:102D6000500D112470E0CA010E9460246038710582
:102D700040F46115710519F406C068E070E0862F13
:102D800008958FE7089581E0089580917C0280FF87
:102D900008C060911C0170E0759567957595679501
:102DA00021C081FF06C060911C0170E07595679598
:102DB00019C082FF04C060911C0170E010C09091A6
:102DC0007A02992399F060911B019617A0F78091E0
:102DD0001C01899FC001112470E00E9460246038AA
:102DE000710540F46115710519F406C061E070E0E9
:102DF000862F08958FE7089581E0089590917F02CE
:102E000091110CC090918002911108C090918202A2
:102E1000911104C090918102992331F098E0909330
:102E20007B0291E090937A028D3C21F40E948616F9
:102E3000819504C08E3C29F40E94861680938002FE
:102E400008958F3C21F40E948616819504C0803D30
:102E500029F40E94861680937F020895893D19F413
:102E60000E94C51605C08A3D31F40E94C5168195A1
:102E70008093810208958B3D21F40E94C5168195AF
:102E800004C08C3D29F40E94C516809382020895E7
:102E90009FE2980F983078F421E030E0A90102C059
:102EA000440F551F9A95E2F7CA0190917E02892B33
:102EB00080937E0208958D3D21F480917C02816093
:102EC0000BC08E3D21F480917C02826005C08F3D55
:102ED00029F480917C02846080937C0208958D3C6B
:102EE00039F49091800297FF35C01092800259C04A
:102EF0008E3C29F4909180021916BCF32BC090915E
:102F00007F028F3C29F497FF25C010927F0249C0B1
:102F1000803D19F41916CCF31DC090918102893DB2
:102F200029F41916BCF4109281023BC08A3D19F4B1
:102F300097FF10C0F8CF8B3D39F49091820297FF34
:102F400009C0109282022DC08C3D21F49091820222
:102F50001916BCF39FE2980F983080F421E030E01E
:102F6000A90102C0440F551F9A95E2F7CA01809546
:102F700090917E02892380937E0213C08D3D21F4BF
:102F800080917C028E7F0BC08E3D21F480917C026B
:102F90008D7F05C08F3D29F480917C028B7F8093CB
:102FA0007C0280917F02811106C080918002811194
:102FB00002C010927B0280918102811106C0809133
:102FC0008202811102C010927A0208950E947D1B34
:102FD00020917F02211104C020918002222321F040
:102FE000909379028093780220918102211104C08C
:102FF00020918202222321F090937702809376021F
:103000008DE792E00E94E5190895EDE7F2E086E091
:10301000DF011D928A95E9F710927B0210927A02E5
:1030200010927C020895FC01828181110DC0838180
:1030300081110AC08481811107C091E085818111CD
:1030400001C090E0892F01C081E081700895A6E061
:10305000B0E0EDE2F8E10C94892486E0EDE7F2E0DF
:10306000DE01119601900D928A95E1F710927F0290
:103070001092800210928102109282028B81811143
:1030800004C08C81882309F456C080917802909105
:1030900079020E94951BAC0190917B02992339F033
:1030A0002091210130E02417350758F044C02091C9
:1030B00022018AE0289F900111242417350718F077
:1030C0003AC09F3F19F09F5F90937B021B811123B1
:1030D00061F00E948616111614F09FEF01C091E076
:1030E000989F902D112490937F021C81112361F0F1
:1030F0000E948616111614F09FEF01C091E0989F70
:10310000902D11249093800280917F02882399F062
:1031100010918002112379F00E947816811101C06C
:1031200081E080937F02812F0E947816811101C077
:1031300081E0809380028D81811104C08E8188237B
:1031400009F456C080917602909177020E94951BF7
:10315000AC0190917A02992339F020911D0130E061
:103160002417350758F044C020911E018AE0289F9B
:10317000900111242417350718F03AC09F3F19F029
:103180009F5F90937A021D81112361F00E94C51602
:10319000111614F09FEF01C091E0989F902D11241B
:1031A000909381021E81112361F00E94C5161116B1
:1031B00014F09FEF01C091E0989F902D11249093FF
:1031C000820280918102882399F01091820211235A
:1031D00079F00E947816811101C081E0809381020C
:1031E000812F0E947816811101C081E080938202B4
:1031F000BE016F5F7F4F8DE792E00E94A21A81119E
:1032000005C08DE792E00E94131881110E94E61715
:1032100086E0FE013196ADE7B2E001900D928A950D
:10322000E1F72696E3E00C94A5240F931F93CF9328
:10323000DF93C42FD22FFC0185818823B1F0409306
:1032400085020E947D1B909384028093830280E21A
:103250008C0F883008F04DC0C77081E001C0880F26
:10326000CA95EAF70E94100444C080918502481371
:1032700030C080918302909184020E94951B883C0B
:10328000910538F510E21D0FCD17B9F080E28C0FD3
:10329000883040F4C77081E001C0880FCA95EAF712
:1032A0000E941704183010F581E09D2F977001C01F
:1032B000880F9A95EAF70E941004802F0E94060456
:1032C0001830B8F4D77081E001C0880FDA95EAF7BA
:1032D0000AC080E28C0F883060F4C77081E001C0C2
:1032E000880FCA95EAF70E94170403C0802F0E9436
:1032F0000604DF91CF911F910F9108950F93FC0168
:10330000E851FC47E730F10590F5CB01EC57FF4F52
:103310000C94742406E221EE41EE6AE17CE723C0BE
:1033200007E225EE45EE6BE17CE71DC006E221EEEB
:1033300040EE68E17CE717C007E225EE44EE69E164
:103340007CE711C006E221EE42EE6CE17CE70BC0A7
:1033500007E225EE46EE6DE17CE705C008E221E0DC
:1033600045EE6EE17CE70E94151980E008C0FB0184
:103370008581882319F01092850201C081E00F91A8
:10338000089590938C0280938B0208950E94AF1150
:10339000811103C0809186020895E0918B02F09123
:1033A0008C02309729F00190F081E02D0995089565
:1033B00080E00895E0918B02F0918C02309721F02B
:1033C0000280F381E02D09950895E0918B02F09140
:1033D0008C02309739F022E0DC012C930680F781D3
:1033E000E02D09950895A3E0B0E0E9EFF9E10C9430
:1033F0008A242091890230918A0228173907A1F086
:1034000090938A0280938902E0918B02F0918C0262
:10341000309751F023E029839B838A830084F185D0
:10342000E02DCE01019609952396E2E00C94A624A6
:10343000A3E0B0E0EEE1FAE10C948A242091870247
:103440003091880228173907A1F090938802809361
:103450008702E0918B02F0918C02309751F024E0CA
:1034600029839B838A830084F185E02DCE01019618
:1034700009952396E2E00C94A624E0910001F091D6
:103480000101329697E080E0915029F021912223AA
:10349000D9F38F5FF9CF0895882371F0209100014F
:1034A00030910101F9013296285F3F4F91918917C0
:1034B00029F0E217F307D1F780E0089581E008953D
:1034C0009C01FC0132969FEF80E04191461789F004
:1034D0009F3F19F4411101C0982F8F5F8630A9F7E3
:1034E0009F3F39F0F901E90FF11D97FDFA956283CD
:1034F000089508959C012A5F3F4FFC0142814613C5
:1035000001C01282019682179307B9F70895682FB8
:1035100080910001909101010E94601A0895682F26
:1035200080910001909101010E947A1A0895E09122
:103530000001F0910101329686E0DF011D928A952B
:10354000E9F70895DC01FB0111969C9111978181A7
:10355000981321C012968C911297882319F09281AA
:10356000891319C013968C911397882319F09381AE
:10357000891311C015968C911597882319F09581A0
:10358000891309C014969C91992339F081E0248114
:10359000291304C002C081E001C080E08170089559
:1035A00008950E94D01A089583E080938D020E94AE
:1035B000D11A0895811102C081E001C082E0809398
:1035C0008D020E94D11A08950E94DA1A089581E0AE
:1035D00080938D020E94D11A08950E94E71A0895DF
:1035E00008950E94F01A08950E94F11A08950E9409
:1035F000F01A08950E94F01A08950E94F01A089592
:10360000CF930E94FA1A0E9428110E94F71AC0E074
:103610008C2F0E94F60F811104C0CF5FCC30C1F710
:1036200001C081E0CF91089585B7806885BF85B7D7
:10363000806885BF08951F920F920FB60F921124D4
:103640008F939F93AF93BF9380918E02811113C08C
:103650008091B9029091BA02A091BB02B091BC02D4
:103660004196A11DB11D8093B9029093BA02A09317
:10367000BB02B093BC02BF91AF919F918F910F900D
:103680000FBE0F901F9018958091C102843031F1C8
:103690000E94DD0210928E0220E488E190E00FB6D5
:1036A000F894A895809360000FBE2093600083B7C4
:1036B000817F846083BF83B7816083BF789488955E
:1036C00083B78E7F83BF0FB6F894A8958091600072
:1036D000886180936000109260000FBE08950E9480
:1036E0006A060E94E202089582E084BD93E095BDDF
:1036F0009AEF97BD80936E0008952FB7F89480914C
:10370000B9029091BA02A091BB02B091BC022FBF46
:1037100008952FB7F8946091B9027091BA02809120
:10372000BB029091BC022FBF08959C014FB7F89443
:103730008091B9029091BA02A091BB02B091BC02F3
:103740004FBF821B930B0895CF92DF92EF92FF92AF
:103750002FB7F894C090B902D090BA02E090BB02A3
:10376000F090BC022FBFA7019601261B370B480B18
:10377000590BCA01B901FF90EF90DF90CF900895E7
:1037800078941F920F920FB60F9211248F939F93EC
:10379000AF93BF938091B9029091BA02A091BB02FE
:1037A000B091BC020196A11DB11D8093B902909306
:1037B000BA02A093BB02B093BC02BF91AF919F919C
:1037C0008F910F900FBE0F901F90189587E797E786
:1037D00090930108809300089AE088E10FB6F8946E
:1037E000A895809360000FBE90936000FFCF9AE091
:1037F00088E10FB6F894A895809360000FBE90936F
:103800006000FFCF8EE1489B02C08150E1F7489BEA
:10381000FECF0895589880E28A95F1F7589A089556
:10382000FC012AE02A95F1F728E090E080E031E001
:1038300040E14A95F1F7880F489B02C081609327C9
:1038400000C0000040E14A95F1F7215089F720E1DE
:103850002A95F1F729B100C0000030E13A95F1F75F
:10386000217092272081920F90830895A1E0B0E00B
:10387000ECE3FCE10C94862419828C017C01E60EB9
:10388000F11C0E151F0551F00E94021CCE0101967D
:103890000E94101CF80181938F01F3CF81E0998180
:1038A000911180E02196E6E00C94A224509A589A57
:1038B00008955098589AE89AE9E6F0E080818C7F64
:1038C00080830895615091E001C0990F6A95EAF7ED
:1038D00020E031E0992361F0492F482319F0589AEC
:1038E000232701C0589840E24A95F1F79695F2CF08
:1038F000222311F0589A01C0589880E28A95F1F776
:1039000058980895FF920F931F93CF93DF93EC0184
:103910008C01060F111DC017D10741F0F9900E94CC
:103920000A1C68E08F2D0E94621CF5CFCDB7DEB770
:10393000E5E00C94A3241F920F920FB60F9211246E
:103940000F931F932F933F934F935F936F937F93A7
:103950008F939F93AF93BF93EF93FF93CF93DF9397
:103960001F92CDB7DEB719820E94021CCE010196CC
:103970000E94101C082F069506950695902F969587
:103980009570202F2570920F292F2370969596956C
:10399000920F877089135FC0898181115CC00430E8
:1039A00008F059C080E18A95F1F7589A509A82E060
:1039B0008A95F1F700C0589888E0089F800111248B
:1039C000D801AD5FBE4F1696ED91FC9117973097D9
:1039D000A9F06091AC017091AD0114962D913C91CC
:1039E0001597260F371F11968D919C911297680F8E
:1039F000791F13964C9113978C910995F801ED5FFF
:103A0000FE4F6381662351F08091AC019091AD012E
:103A100024813581820F931F0E94821C0E940A1C00
:103A200080E18A95F1F758985098589A80E18A95E4
:103A3000F1F7F801ED5FFE4F6081662351F0809150
:103A4000AC019091AD0121813281820F931F0E94C0
:103A5000361C0E94021C0F90DF91CF91FF91EF91D5
:103A6000BF91AF919F918F917F916F915F914F9196
:103A70003F912F911F910F910F900FBE0F901F90AC
:103A800018950F931F93CF93DF93843091050CF01B
:103A90006DC0EC01F894509A589885E08A95F1F73A
:103AA00000009C2F969595702C2F2570920F892FD2
:103AB00083709695969523E0CC0FDD1F2A95E1F74C
:103AC000980F8E01092B0E940A1C84E08A95F1F759
:103AD00000C068E0802F0E94621C80E18A95F1F7A7
:103AE0005098589A489902C000C0FCCF87E090E0F7
:103AF000489B08C0019721F4509A589A789436C090
:103B000000C0F6CFFE01ED5FFE4F6381662381F0BA
:103B10008091AC019091AD0124813581820F931F7A
:103B20000E94361C811104C0509A589A78941FC084
:103B30000E94021C80E28A95F1F75898509A80E121
:103B40008A95F1F7CD5FDE4F6881662351F0809151
:103B5000AC019091AD0129813A81820F931F0E949F
:103B6000821C0E940A1C789481E001C080E0DF91F1
:103B7000CF911F910F910895809197020895089514
:103B80009B019091C1029430F1F48F708093E90011
:103B90008FEF9091E800815095FD06C095ED9A95C4
:103BA000F1F700008111F5CF8091E80085FF0BC08F
:103BB000BA01C90140E050E00E94C01F8091E800B6
:103BC0008E778093E800089543E050E0BC0182E0E6
:103BD0000E94C01D089546E050E0BC0182E00E94B2
:103BE000C01D0895CF93DF93EC0148E050E0BC0185
:103BF00081E00E94C01D88E0FE01AFE8B2E00190C4
:103C00000D928A95E1F7DF91CF9108958091C002DE
:103C1000811109C00E944B210E94A8218091E200DD
:103C200084608093E20008951092C00208950E947B
:103C3000ED1A08956091BD0281E0611101C080E03C
:103C40000E94D41A08959091C10281E0943009F045
:103C500080E06091BD020E94DA1A089542E061ECB2
:103C600081E00E94C42042E261EC82E00E94C42014
:103C70009091C10281E0943009F080E06091BD0232
:103C80000E94E41A08958091C302833009F461C050
:103C900030F4813071F0823009F49BC008958A308D
:103CA00009F487C08B3009F46CC0893009F0A9C0D1
:103CB00020C08091C202813A09F0A3C08091E8003F
:103CC000877F8093E8008091C6029091C702892B7C
:103CD00021F468E08FE892E003C060E080E090E0CB
:103CE00070E00E9405208091E8008B778093E800C7
:103CF00008958091C202813209F083C08091C6028A
:103D00009091C702029708F07CC08091E800877FFD
:103D10008093E8008091E80082FD05C08091C10297
:103D20008111F8CF6EC02091F3008091F20090E0F5
:103D3000922B029731F48091F100813011F086309E
:103D400021F48091F100809397028091E8008B77B5
:103D500054C08091C202813A09F053C08091C602DA
:103D60009091C702892B09F04CC08091E800877FB1
:103D70008093E8008091E80080FFFCCF80912D01C6
:103D800037C08091C2028132E1F58091C6029091E4
:103D9000C702892BB1F58091E800877F8093E80006
:103DA0000E94F9208091C40280932D010E946A062E
:103DB00008958091C202813221F58091E800877FC9
:103DC0008093E8000E94F9208091C50280939802B8
:103DD00008958091C202813AA1F48091E800877F22
:103DE0008093E8008091E80080FFFCCF80919802EA
:103DF0008093F1008091E8008E778093E8000E9424
:103E0000F920089584B7877F84BF0FB6F894A895EA
:103E100080916000886180936000109260000FBE06
:103E200090E080E80FB6F894809361009093610071
:103E30000FBE0E94E71A08950E944B210E94A821FC
:103E4000E2EEF0E080818460808378940E943324E5
:103E5000089583E291E00E94C11908958091C10202
:103E60008530A9F48091C102853079F40E94441B09
:103E70008091BF028823B1F30E94001B882391F335
:103E80000E94AA1F0E946A06EDCF0E946F1B089530
:103E900008959A014091C8025091C9020E94511F91
:103EA0000895492F552743305105C9F060F441303A
:103EB000510581F04230510509F044C08BE390E098
:103EC00042E752E043C041325105E1F04232510530
:103ED00049F138C082E190E04DEA52E037C09927BD
:103EE0008130910549F028F0029761F5EAE4F2E0AB
:103EF00005C0EEE6F2E002C0EAE5F2E0849190E06F
:103F0000AF0124C06115710541F061307105D1F434
:103F100089E090E04DE952E019C089E090E044E882
:103F200052E014C06115710541F06130710551F422
:103F30008BE790E04FEB52E009C084E490E04AE365
:103F400053E004C080E090E040E050E0F90151838C
:103F50004083089580E189BD82E189BD09B400FEF6
:103F6000FDCF8091D8008F7D8093D8008091E000B4
:103F700082608093E0008091E00081FDFCCF089595
:103F8000A0E0B0E0E6ECFFE10C948424EC018B01AE
:103F90007A010E941821811133C0E114F10439F033
:103FA000F70180819181081B190BC80FD91FC12C03
:103FB000D12C0115110519F18091E80085FD16C07D
:103FC0008091E8008E778093E800E114F10449F0D5
:103FD000F70180819181C80ED91ED182C08285E00F
:103FE0000FC00E941821882321F30AC08991809371
:103FF000F10001501109FFEFCF1ADF0ADACF80E09C
:10400000CDB7DEB7E8E00C94A0242091C80230912F
:10401000C9022617370748F06115710539F4209158
:10402000E8002E772093E80001C0B901FC0120E0F0
:104030006115710579F18091C1028823F1F1853014
:10404000F1F18091E80083FD3CC08091E80082FDA1
:104050002EC08091E80080FFEBCF2091F30080918B
:10406000F20090E0922B6115710551F088309105B6
:1040700038F421912093F100615071090196F3CF3A
:1040800021E0089709F020E08091E8008E77809386
:10409000E800CECF2111CFCF0AC08091C102882382
:1040A00061F0853061F08091E80083FD0AC0809165
:1040B000E80082FFF2CF80E0089582E0089583E077
:1040C000089581E008952091C8023091C902261711
:1040D000370748F06115710539F42091E8002E7713
:1040E0002093E80001C0B901FC0120E061157105D1
:1040F00091F18091C102882309F440C0853009F410
:104100003FC08091E80083FD3DC08091E80082FDC2
:104110002FC08091E80080FFE9CF2091F3008091CB
:10412000F20090E0922B6115710559F088309105ED
:1041300040F424912093F100319661507109019669
:10414000F2CF21E0089709F020E08091E8008E7717
:104150008093E800CBCF2111CCCF0AC08091C1025F
:10416000882361F0853061F08091E80083FD0AC00A
:104170008091E80082FFF2CF80E0089582E0089508
:1041800083E0089581E00895982F973068F5909323
:10419000E900981739F07091EC002091ED005091F2
:1041A000F00003C0242F762F50E021FD02C09F5F56
:1041B000ECCF3091EB003E7F3093EB003091ED007F
:1041C0003D7F3093ED003091EB0031603093EB0098
:1041D0007093EC002093ED005093F0002091EE00DE
:1041E00027FDE5CF80E008958F708093E90081E09E
:1041F00008958091C20287FF11C08091E80082FD7E
:1042000005C08091C1028111F8CF11C08091E800F2
:104210008B770BC08091C102882349F08091E80020
:1042200080FFF8CF8091E8008E778093E8000895B2
:104230002091E4003091E50095E64091EC00842F58
:10424000817040FF23C08091E80080FD1DC08091F7
:10425000C102882399F0853099F08091EB0085FDAB
:1042600011C04091E4005091E5002417350729F36F
:10427000915011F09A01E1CF84E0089582E0089511
:1042800083E0089581E0089580E008954091E8007A
:1042900042FFDDCF08950E94BA210E94C221E0EEC4
:1042A000F0E0808181608083E8EDF0E080818F77AD
:1042B000808319BCA7EDB0E08C918E7F8C938081B8
:1042C0008F7E80831092C00208950F931F93CF9327
:1042D000DF930E94BA210E94C221C8EDD0E08881FC
:1042E0008F77888388818068888388818F7D8883A1
:1042F00019BC1092C1021092BD021092BF0210921E
:10430000BE0200EE10E0F80180818B7F80838881FF
:104310008160888342E060E080E00E94C420E1EE9A
:10432000F0E080818E7F8083E2EEF0E0808181602A
:104330008083808188608083F80180818E7F808384
:10434000888180618883DF91CF911F910F910895BB
:10435000E8EDF0E080818F7E8083E7EDF0E0808102
:104360008160808384E082BF81E08093C0020E94EC
:1043700065210895E8EDF0E080818E7F80831092C2
:10438000E20008951092DA001092E10008951F9261
:104390000F920FB60F9211242F933F934F935F9379
:1043A0006F937F938F939F93AF93BF93EF93FF93FD
:1043B0008091E10082FF0BC08091E20082FF07C084
:1043C0008091E1008B7F8093E1000E9432248091F4
:1043D000DA0080FF1FC08091D80080FF1BC0809151
:1043E000DA008E7F8093DA008091D90080FF0DC0C3
:1043F00080E189BD82E189BD09B400FEFDCF81E085
:104400008093C1020E94061E05C019BC1092C10211
:104410000E94141E8091E10080FF19C08091E2008B
:1044200080FF15C08091E2008E7F8093E200809132
:10443000E20080618093E2008091D80080628093E6
:10444000D80019BC85E08093C1020E941A1E809199
:10445000E10084FF30C08091E20084FF2CC080E145
:1044600089BD82E189BD09B400FEFDCF8091D800ED
:104470008F7D8093D8008091E1008F7E8093E10052
:104480008091E2008F7E8093E2008091E200816063
:104490008093E2008091BD02882311F084E007C080
:1044A0008091E30087FD02C081E001C083E080933A
:1044B000C1020E94231E8091E10083FF29C08091E8
:1044C000E20083FF25C08091E100877F8093E100B7
:1044D00082E08093C1021092BD028091E1008E7F44
:1044E0008093E1008091E2008E7F8093E2008091D2
:1044F000E20080618093E20042E060E080E00E94A0
:10450000C4208091F00088608093F0000E94171E04
:10451000FF91EF91BF91AF919F918F917F916F919B
:104520005F914F913F912F910F900FBE0F901F9071
:1045300018951F920F920FB60F9211242F933F934D
:104540004F935F936F937F938F939F93AF93BF939B
:10455000CF93DF93EF93FF93C091E900CF708091E9
:10456000EC00D82FD17080FDD0E81092E900809146
:10457000F000877F8093F00078940E94DD221092F3
:10458000E9008091F00088608093F000CD2BCF701F
:10459000C093E900FF91EF91DF91CF91BF91AF916F
:1045A0009F918F917F916F915F914F913F912F914B
:1045B0000F900FBE0F901F901895AAE2B0E0E3EEA7
:1045C000F2E20C948924E2ECF2E08091F100819314
:1045D00022E0EA3CF207C9F70E94431E8091E800FE
:1045E00083FF2EC18091C2029091C302492F50E0F7
:1045F0004A30510508F024C1FA01E557FF4F0C94E9
:104600007424803821F0823809F01AC108C08091E2
:10461000BE029091BF02992389F082600FC0809101
:10462000C6028F70873008F00BC18093E90080913B
:10463000EB0085FB882780F91092E9009091E80053
:10464000977F9093E8008093F1001092F100D1C021
:10465000282F2D7F09F0F4C0882319F0823061F0F3
:10466000EFC08091C402813009F0EAC0933009F0B4
:1046700080E08093BF022EC08091C40281112AC0C5
:104680008091C6028F702FEF280F263008F0D8C017
:104690008093E9002091EB0020FF1CC0933021F4AF
:1046A0008091EB00806214C09091EB009061909338
:1046B000EB0021E030E0A90102C0440F551F8A95AC
:1046C000E2F74093EA001092EA008091EB008860E4
:1046D0008093EB001092E9008091E800877F80933F
:1046E000E8000E94F920ACC08111AAC01091C40258
:1046F0001F778091E3008078812B8093E300809185
:10470000E800877F8093E8000E94F9208091E8000C
:1047100080FFFCCF8091E30080688093E30011115B
:1047200002C082E001C083E08093C10289C080584A
:10473000823008F085C08091C4029091C5028C3D02
:1047400053E0950779F583E08A838AE289834FB73E
:10475000F894DE01139620E03EE051E2E32FF0E012
:1047600050935700E49120FF03C0E295EF703F5F44
:10477000EF708E2F90E0EA3010F0C79601C0C0961F
:104780008D939D932F5F243149F74FBF8091E800AF
:10479000877F8093E8006AE270E0CE0101960E9474
:1047A000052016C06091C6027091C702AE014F5F2E
:1047B0005F4F0E94491FBC01892B09F441C09091B1
:1047C000E800977F9093E80089819A810E94632096
:1047D0008091E8008B778093E80032C0803881F5C3
:1047E0008091E800877F8093E8008091BD028093EC
:1047F000F1008091E8008E7772CF811121C0809105
:10480000C4029091C50299270297D4F48091E800E0
:10481000877F8093E8008091C4028093BD020E944C
:10482000F9208091BD02811106C08091E30087FDCF
:1048300002C081E001C084E08093C1020E942E1E6C
:104840008091E80083FF0AC08091E800877F809311
:10485000E8008091EB0080628093EB00AA96E3E091
:104860000C94A5240895CF938091C1028823A1F0D0
:10487000C091E900CF709091EC00892F817090FD7C
:1048800080E8C82B1092E9008091E80083FD0E9427
:10489000DD22CF70C093E900CF9108950E944B2193
:1048A0001092C1020895E8EDF0E08081806180837C
:1048B0008AE18A95F1F700C08091D900817008954E
:1048C00097FB072E16F4009407D077FD09D00E94BD
:1048D000B12407FC05D03EF4909581959F4F089533
:1048E000709561957F4F0895EE0FFF1F0590F4912D
:1048F000E02D09942F923F924F925F926F927F9298
:104900008F929F92AF92BF92CF92DF92EF92FF92DF
:104910000F931F93CF93DF93CDB7DEB7CA1BDB0B8B
:104920000FB6F894DEBF0FBECDBF09942A88398830
:1049300048885F846E847D848C849B84AA84B98437
:10494000C884DF80EE80FD800C811B81AA81B98143
:10495000CE0FD11D0FB6F894DEBF0FBECDBFED0157
:104960000895AA1BBB1B51E107C0AA1FBB1FA617B6
:10497000B70710F0A61BB70B881F991F5A95A9F708
:1049800080959095BC01CD010895FB01DC0104C028
:104990008D910190801921F441505040C8F7881B37
:1049A000990B0895FB01DC0102C001900D9241506A
:1049B0005040D8F70895F999FECF92BD81BDF89A7D
:1049C000992780B50895A8E1B0E042E050E00C944A
:1049D0001F25DC01A40FB51F4150504048F0CB010A
:1049E000840F951F2E910E94FA2441505040D0F719
:1049F0000895262FF999FECF92BD81BDF89A0197AF
:104A000000B4021639F01FBA20BD0FB6F894FA9A16
:104A1000F99A0FBE08950396272F0E94FA240E9448
:104A2000F924252F0E94FA24242F0C94FA240196AD
:104A3000272F0E94FA240C94F924DC01CB01FC01FD
:104A4000F999FECF06C0F2BDE1BDF89A319600B4E7
:0E4A50000D9241505040B8F70895F894FFCFF2
:104A5E002A02010000000100000000000000060113
:104A6E000000000407000000000000280850011E8E
:104A7E000A1401BC1DF21DBF1DEB1DE41D01E20059
:104A8E00E900EA00B500B600B700CD008301CC0006
:104A9E008A01920194012102230224022502260298
:104AAE0027022A02B300B4006F0070009F01CB01F1
:104ABE009F02A002818283E200E900EA00B500B6FF
:104ACE0000B700CD008301CC008A01920194012130
:104ADE0002230224022502260227022A02B300B470
:104AEE00006F0070009F01CB019F02A002818283A4
:0E4AFE00946697C63435F6F7313332365402DB
:00000001FF
